{
  "_format": "hh-sol-artifact-1",
  "contractName": "EcoChainTree",
  "sourceName": "contracts/EcoChainTree.sol",
  "abi": [
    {
      "inputs": [],
      "stateMutability": "nonpayable",
      "type": "constructor"
    },
    {
      "inputs": [],
      "name": "AccessControlBadConfirmation",
      "type": "error"
    },
    {
      "inputs": [
        {
          "internalType": "address",
          "name": "account",
          "type": "address"
        },
        {
          "internalType": "bytes32",
          "name": "neededRole",
          "type": "bytes32"
        }
      ],
      "name": "AccessControlUnauthorizedAccount",
      "type": "error"
    },
    {
      "inputs": [
        {
          "internalType": "address",
          "name": "sender",
          "type": "address"
        },
        {
          "internalType": "uint256",
          "name": "tokenId",
          "type": "uint256"
        },
        {
          "internalType": "address",
          "name": "owner",
          "type": "address"
        }
      ],
      "name": "ERC721IncorrectOwner",
      "type": "error"
    },
    {
      "inputs": [
        {
          "internalType": "address",
          "name": "operator",
          "type": "address"
        },
        {
          "internalType": "uint256",
          "name": "tokenId",
          "type": "uint256"
        }
      ],
      "name": "ERC721InsufficientApproval",
      "type": "error"
    },
    {
      "inputs": [
        {
          "internalType": "address",
          "name": "approver",
          "type": "address"
        }
      ],
      "name": "ERC721InvalidApprover",
      "type": "error"
    },
    {
      "inputs": [
        {
          "internalType": "address",
          "name": "operator",
          "type": "address"
        }
      ],
      "name": "ERC721InvalidOperator",
      "type": "error"
    },
    {
      "inputs": [
        {
          "internalType": "address",
          "name": "owner",
          "type": "address"
        }
      ],
      "name": "ERC721InvalidOwner",
      "type": "error"
    },
    {
      "inputs": [
        {
          "internalType": "address",
          "name": "receiver",
          "type": "address"
        }
      ],
      "name": "ERC721InvalidReceiver",
      "type": "error"
    },
    {
      "inputs": [
        {
          "internalType": "address",
          "name": "sender",
          "type": "address"
        }
      ],
      "name": "ERC721InvalidSender",
      "type": "error"
    },
    {
      "inputs": [
        {
          "internalType": "uint256",
          "name": "tokenId",
          "type": "uint256"
        }
      ],
      "name": "ERC721NonexistentToken",
      "type": "error"
    },
    {
      "anonymous": false,
      "inputs": [
        {
          "indexed": true,
          "internalType": "address",
          "name": "owner",
          "type": "address"
        },
        {
          "indexed": true,
          "internalType": "address",
          "name": "approved",
          "type": "address"
        },
        {
          "indexed": true,
          "internalType": "uint256",
          "name": "tokenId",
          "type": "uint256"
        }
      ],
      "name": "Approval",
      "type": "event"
    },
    {
      "anonymous": false,
      "inputs": [
        {
          "indexed": true,
          "internalType": "address",
          "name": "owner",
          "type": "address"
        },
        {
          "indexed": true,
          "internalType": "address",
          "name": "operator",
          "type": "address"
        },
        {
          "indexed": false,
          "internalType": "bool",
          "name": "approved",
          "type": "bool"
        }
      ],
      "name": "ApprovalForAll",
      "type": "event"
    },
    {
      "anonymous": false,
      "inputs": [
        {
          "indexed": false,
          "internalType": "uint256",
          "name": "_fromTokenId",
          "type": "uint256"
        },
        {
          "indexed": false,
          "internalType": "uint256",
          "name": "_toTokenId",
          "type": "uint256"
        }
      ],
      "name": "BatchMetadataUpdate",
      "type": "event"
    },
    {
      "anonymous": false,
      "inputs": [
        {
          "indexed": false,
          "internalType": "uint256",
          "name": "_tokenId",
          "type": "uint256"
        }
      ],
      "name": "MetadataUpdate",
      "type": "event"
    },
    {
      "anonymous": false,
      "inputs": [
        {
          "indexed": true,
          "internalType": "bytes32",
          "name": "role",
          "type": "bytes32"
        },
        {
          "indexed": true,
          "internalType": "bytes32",
          "name": "previousAdminRole",
          "type": "bytes32"
        },
        {
          "indexed": true,
          "internalType": "bytes32",
          "name": "newAdminRole",
          "type": "bytes32"
        }
      ],
      "name": "RoleAdminChanged",
      "type": "event"
    },
    {
      "anonymous": false,
      "inputs": [
        {
          "indexed": true,
          "internalType": "bytes32",
          "name": "role",
          "type": "bytes32"
        },
        {
          "indexed": true,
          "internalType": "address",
          "name": "account",
          "type": "address"
        },
        {
          "indexed": true,
          "internalType": "address",
          "name": "sender",
          "type": "address"
        }
      ],
      "name": "RoleGranted",
      "type": "event"
    },
    {
      "anonymous": false,
      "inputs": [
        {
          "indexed": true,
          "internalType": "bytes32",
          "name": "role",
          "type": "bytes32"
        },
        {
          "indexed": true,
          "internalType": "address",
          "name": "account",
          "type": "address"
        },
        {
          "indexed": true,
          "internalType": "address",
          "name": "sender",
          "type": "address"
        }
      ],
      "name": "RoleRevoked",
      "type": "event"
    },
    {
      "anonymous": false,
      "inputs": [
        {
          "indexed": true,
          "internalType": "address",
          "name": "from",
          "type": "address"
        },
        {
          "indexed": true,
          "internalType": "address",
          "name": "to",
          "type": "address"
        },
        {
          "indexed": true,
          "internalType": "uint256",
          "name": "tokenId",
          "type": "uint256"
        }
      ],
      "name": "Transfer",
      "type": "event"
    },
    {
      "anonymous": false,
      "inputs": [
        {
          "indexed": true,
          "internalType": "uint256",
          "name": "tokenId",
          "type": "uint256"
        },
        {
          "indexed": true,
          "internalType": "address",
          "name": "verifier",
          "type": "address"
        }
      ],
      "name": "TreeCutConfirmed",
      "type": "event"
    },
    {
      "anonymous": false,
      "inputs": [
        {
          "indexed": true,
          "internalType": "uint256",
          "name": "tokenId",
          "type": "uint256"
        },
        {
          "indexed": true,
          "internalType": "address",
          "name": "reporter",
          "type": "address"
        }
      ],
      "name": "TreeCutReported",
      "type": "event"
    },
    {
      "anonymous": false,
      "inputs": [
        {
          "indexed": true,
          "internalType": "uint256",
          "name": "tokenId",
          "type": "uint256"
        },
        {
          "indexed": true,
          "internalType": "address",
          "name": "planter",
          "type": "address"
        },
        {
          "indexed": false,
          "internalType": "string",
          "name": "ipfsHash",
          "type": "string"
        }
      ],
      "name": "TreeRegistered",
      "type": "event"
    },
    {
      "anonymous": false,
      "inputs": [
        {
          "indexed": true,
          "internalType": "uint256",
          "name": "tokenId",
          "type": "uint256"
        },
        {
          "indexed": true,
          "internalType": "uint256",
          "name": "originalTokenId",
          "type": "uint256"
        }
      ],
      "name": "TreeReplanted",
      "type": "event"
    },
    {
      "anonymous": false,
      "inputs": [
        {
          "indexed": true,
          "internalType": "uint256",
          "name": "tokenId",
          "type": "uint256"
        },
        {
          "indexed": false,
          "internalType": "enum EcoChainTree.TreeStatus",
          "name": "newStatus",
          "type": "uint8"
        }
      ],
      "name": "TreeStatusUpdated",
      "type": "event"
    },
    {
      "anonymous": false,
      "inputs": [
        {
          "indexed": true,
          "internalType": "uint256",
          "name": "tokenId",
          "type": "uint256"
        },
        {
          "indexed": true,
          "internalType": "address",
          "name": "verifier",
          "type": "address"
        },
        {
          "indexed": false,
          "internalType": "uint256",
          "name": "carbonScore",
          "type": "uint256"
        }
      ],
      "name": "TreeVerified",
      "type": "event"
    },
    {
      "inputs": [],
      "name": "DEFAULT_ADMIN_ROLE",
      "outputs": [
        {
          "internalType": "bytes32",
          "name": "",
          "type": "bytes32"
        }
      ],
      "stateMutability": "view",
      "type": "function"
    },
    {
      "inputs": [],
      "name": "MINTER_ROLE",
      "outputs": [
        {
          "internalType": "bytes32",
          "name": "",
          "type": "bytes32"
        }
      ],
      "stateMutability": "view",
      "type": "function"
    },
    {
      "inputs": [],
      "name": "VERIFIER_ROLE",
      "outputs": [
        {
          "internalType": "bytes32",
          "name": "",
          "type": "bytes32"
        }
      ],
      "stateMutability": "view",
      "type": "function"
    },
    {
      "inputs": [
        {
          "internalType": "address",
          "name": "to",
          "type": "address"
        },
        {
          "internalType": "uint256",
          "name": "tokenId",
          "type": "uint256"
        }
      ],
      "name": "approve",
      "outputs": [],
      "stateMutability": "nonpayable",
      "type": "function"
    },
    {
      "inputs": [
        {
          "internalType": "address",
          "name": "owner",
          "type": "address"
        }
      ],
      "name": "balanceOf",
      "outputs": [
        {
          "internalType": "uint256",
          "name": "",
          "type": "uint256"
        }
      ],
      "stateMutability": "view",
      "type": "function"
    },
    {
      "inputs": [
        {
          "internalType": "uint256",
          "name": "tokenId",
          "type": "uint256"
        }
      ],
      "name": "confirmCut",
      "outputs": [],
      "stateMutability": "nonpayable",
      "type": "function"
    },
    {
      "inputs": [
        {
          "internalType": "uint256",
          "name": "tokenId",
          "type": "uint256"
        }
      ],
      "name": "getApproved",
      "outputs": [
        {
          "internalType": "address",
          "name": "",
          "type": "address"
        }
      ],
      "stateMutability": "view",
      "type": "function"
    },
    {
      "inputs": [
        {
          "internalType": "bytes32",
          "name": "role",
          "type": "bytes32"
        }
      ],
      "name": "getRoleAdmin",
      "outputs": [
        {
          "internalType": "bytes32",
          "name": "",
          "type": "bytes32"
        }
      ],
      "stateMutability": "view",
      "type": "function"
    },
    {
      "inputs": [
        {
          "internalType": "uint256",
          "name": "tokenId",
          "type": "uint256"
        }
      ],
      "name": "getTreeDetails",
      "outputs": [
        {
          "components": [
            {
              "internalType": "enum EcoChainTree.TreeStatus",
              "name": "status",
              "type": "uint8"
            },
            {
              "internalType": "uint256",
              "name": "carbonScore",
              "type": "uint256"
            },
            {
              "internalType": "address",
              "name": "planter",
              "type": "address"
            },
            {
              "internalType": "string",
              "name": "ipfsHash",
              "type": "string"
            },
            {
              "internalType": "uint256",
              "name": "registeredAt",
              "type": "uint256"
            },
            {
              "internalType": "uint256",
              "name": "verifiedAt",
              "type": "uint256"
            }
          ],
          "internalType": "struct EcoChainTree.TreeData",
          "name": "",
          "type": "tuple"
        }
      ],
      "stateMutability": "view",
      "type": "function"
    },
    {
      "inputs": [
        {
          "internalType": "bytes32",
          "name": "role",
          "type": "bytes32"
        },
        {
          "internalType": "address",
          "name": "account",
          "type": "address"
        }
      ],
      "name": "grantRole",
      "outputs": [],
      "stateMutability": "nonpayable",
      "type": "function"
    },
    {
      "inputs": [
        {
          "internalType": "bytes32",
          "name": "role",
          "type": "bytes32"
        },
        {
          "internalType": "address",
          "name": "account",
          "type": "address"
        }
      ],
      "name": "hasRole",
      "outputs": [
        {
          "internalType": "bool",
          "name": "",
          "type": "bool"
        }
      ],
      "stateMutability": "view",
      "type": "function"
    },
    {
      "inputs": [
        {
          "internalType": "string",
          "name": "",
          "type": "string"
        }
      ],
      "name": "ipfsHashUsed",
      "outputs": [
        {
          "internalType": "bool",
          "name": "",
          "type": "bool"
        }
      ],
      "stateMutability": "view",
      "type": "function"
    },
    {
      "inputs": [
        {
          "internalType": "address",
          "name": "owner",
          "type": "address"
        },
        {
          "internalType": "address",
          "name": "operator",
          "type": "address"
        }
      ],
      "name": "isApprovedForAll",
      "outputs": [
        {
          "internalType": "bool",
          "name": "",
          "type": "bool"
        }
      ],
      "stateMutability": "view",
      "type": "function"
    },
    {
      "inputs": [
        {
          "internalType": "uint256",
          "name": "newTokenId",
          "type": "uint256"
        },
        {
          "internalType": "uint256",
          "name": "originalTokenId",
          "type": "uint256"
        }
      ],
      "name": "markReplanted",
      "outputs": [],
      "stateMutability": "nonpayable",
      "type": "function"
    },
    {
      "inputs": [],
      "name": "name",
      "outputs": [
        {
          "internalType": "string",
          "name": "",
          "type": "string"
        }
      ],
      "stateMutability": "view",
      "type": "function"
    },
    {
      "inputs": [
        {
          "internalType": "uint256",
          "name": "tokenId",
          "type": "uint256"
        }
      ],
      "name": "ownerOf",
      "outputs": [
        {
          "internalType": "address",
          "name": "",
          "type": "address"
        }
      ],
      "stateMutability": "view",
      "type": "function"
    },
    {
      "inputs": [
        {
          "internalType": "address",
          "name": "planter",
          "type": "address"
        },
        {
          "internalType": "string",
          "name": "ipfsHash",
          "type": "string"
        },
        {
          "internalType": "string",
          "name": "metadataURI",
          "type": "string"
        }
      ],
      "name": "registerTree",
      "outputs": [
        {
          "internalType": "uint256",
          "name": "",
          "type": "uint256"
        }
      ],
      "stateMutability": "nonpayable",
      "type": "function"
    },
    {
      "inputs": [
        {
          "internalType": "uint256",
          "name": "tokenId",
          "type": "uint256"
        }
      ],
      "name": "rejectTree",
      "outputs": [],
      "stateMutability": "nonpayable",
      "type": "function"
    },
    {
      "inputs": [
        {
          "internalType": "bytes32",
          "name": "role",
          "type": "bytes32"
        },
        {
          "internalType": "address",
          "name": "callerConfirmation",
          "type": "address"
        }
      ],
      "name": "renounceRole",
      "outputs": [],
      "stateMutability": "nonpayable",
      "type": "function"
    },
    {
      "inputs": [
        {
          "internalType": "uint256",
          "name": "",
          "type": "uint256"
        }
      ],
      "name": "replacesTokenId",
      "outputs": [
        {
          "internalType": "uint256",
          "name": "",
          "type": "uint256"
        }
      ],
      "stateMutability": "view",
      "type": "function"
    },
    {
      "inputs": [
        {
          "internalType": "uint256",
          "name": "tokenId",
          "type": "uint256"
        }
      ],
      "name": "reportCut",
      "outputs": [],
      "stateMutability": "nonpayable",
      "type": "function"
    },
    {
      "inputs": [
        {
          "internalType": "bytes32",
          "name": "role",
          "type": "bytes32"
        },
        {
          "internalType": "address",
          "name": "account",
          "type": "address"
        }
      ],
      "name": "revokeRole",
      "outputs": [],
      "stateMutability": "nonpayable",
      "type": "function"
    },
    {
      "inputs": [
        {
          "internalType": "address",
          "name": "from",
          "type": "address"
        },
        {
          "internalType": "address",
          "name": "to",
          "type": "address"
        },
        {
          "internalType": "uint256",
          "name": "tokenId",
          "type": "uint256"
        }
      ],
      "name": "safeTransferFrom",
      "outputs": [],
      "stateMutability": "nonpayable",
      "type": "function"
    },
    {
      "inputs": [
        {
          "internalType": "address",
          "name": "from",
          "type": "address"
        },
        {
          "internalType": "address",
          "name": "to",
          "type": "address"
        },
        {
          "internalType": "uint256",
          "name": "tokenId",
          "type": "uint256"
        },
        {
          "internalType": "bytes",
          "name": "data",
          "type": "bytes"
        }
      ],
      "name": "safeTransferFrom",
      "outputs": [],
      "stateMutability": "nonpayable",
      "type": "function"
    },
    {
      "inputs": [
        {
          "internalType": "address",
          "name": "operator",
          "type": "address"
        },
        {
          "internalType": "bool",
          "name": "approved",
          "type": "bool"
        }
      ],
      "name": "setApprovalForAll",
      "outputs": [],
      "stateMutability": "nonpayable",
      "type": "function"
    },
    {
      "inputs": [
        {
          "internalType": "bytes4",
          "name": "interfaceId",
          "type": "bytes4"
        }
      ],
      "name": "supportsInterface",
      "outputs": [
        {
          "internalType": "bool",
          "name": "",
          "type": "bool"
        }
      ],
      "stateMutability": "view",
      "type": "function"
    },
    {
      "inputs": [],
      "name": "symbol",
      "outputs": [
        {
          "internalType": "string",
          "name": "",
          "type": "string"
        }
      ],
      "stateMutability": "view",
      "type": "function"
    },
    {
      "inputs": [
        {
          "internalType": "uint256",
          "name": "tokenId",
          "type": "uint256"
        }
      ],
      "name": "tokenURI",
      "outputs": [
        {
          "internalType": "string",
          "name": "",
          "type": "string"
        }
      ],
      "stateMutability": "view",
      "type": "function"
    },
    {
      "inputs": [],
      "name": "totalSupply",
      "outputs": [
        {
          "internalType": "uint256",
          "name": "",
          "type": "uint256"
        }
      ],
      "stateMutability": "view",
      "type": "function"
    },
    {
      "inputs": [
        {
          "internalType": "address",
          "name": "from",
          "type": "address"
        },
        {
          "internalType": "address",
          "name": "to",
          "type": "address"
        },
        {
          "internalType": "uint256",
          "name": "tokenId",
          "type": "uint256"
        }
      ],
      "name": "transferFrom",
      "outputs": [],
      "stateMutability": "nonpayable",
      "type": "function"
    },
    {
      "inputs": [
        {
          "internalType": "uint256",
          "name": "",
          "type": "uint256"
        }
      ],
      "name": "trees",
      "outputs": [
        {
          "internalType": "enum EcoChainTree.TreeStatus",
          "name": "status",
          "type": "uint8"
        },
        {
          "internalType": "uint256",
          "name": "carbonScore",
          "type": "uint256"
        },
        {
          "internalType": "address",
          "name": "planter",
          "type": "address"
        },
        {
          "internalType": "string",
          "name": "ipfsHash",
          "type": "string"
        },
        {
          "internalType": "uint256",
          "name": "registeredAt",
          "type": "uint256"
        },
        {
          "internalType": "uint256",
          "name": "verifiedAt",
          "type": "uint256"
        }
      ],
      "stateMutability": "view",
      "type": "function"
    },
    {
      "inputs": [
        {
          "internalType": "uint256",
          "name": "tokenId",
          "type": "uint256"
        },
        {
          "internalType": "uint256",
          "name": "carbonScorePerYear",
          "type": "uint256"
        }
      ],
      "name": "verifyTree",
      "outputs": [],
      "stateMutability": "nonpayable",
      "type": "function"
    }
  ],
  "bytecode": "0x60806040523480156200001157600080fd5b506040518060400160405280600d81526020016c45636f436861696e205472656560981b8152506040518060400160405280600781526020016645434f5452454560c81b815250816000908162000069919062000243565b50600162000078828262000243565b506200008a91506000905033620000eb565b50620000b77f0ce23c3e399818cfee81a7ab0880f714e53d7672b08df0fa62f2843416e1ea0933620000eb565b50620000e47f9f2df0fed2c77648de5860a4cc508cd0818c85b8b8a1ab4ceeef8d981c8956a633620000eb565b506200030f565b60008281526007602090815260408083206001600160a01b038516845290915281205460ff16620001945760008381526007602090815260408083206001600160a01b03861684529091529020805460ff191660011790556200014b3390565b6001600160a01b0316826001600160a01b0316847f2f8788117e7eff1d82e926ec794901d17c78024a50270940304540a733656f0d60405160405180910390a450600162000198565b5060005b92915050565b634e487b7160e01b600052604160045260246000fd5b600181811c90821680620001c957607f821691505b602082108103620001ea57634e487b7160e01b600052602260045260246000fd5b50919050565b601f8211156200023e57600081815260208120601f850160051c81016020861015620002195750805b601f850160051c820191505b818110156200023a5782815560010162000225565b5050505b505050565b81516001600160401b038111156200025f576200025f6200019e565b6200027781620002708454620001b4565b84620001f0565b602080601f831160018114620002af5760008415620002965750858301515b600019600386901b1c1916600185901b1785556200023a565b600085815260208120601f198616915b82811015620002e057888601518255948401946001909101908401620002bf565b5085821015620002ff5787850151600019600388901b60f8161c191681555b5050505050600190811b01905550565b612389806200031f6000396000f3fe608060405234801561001057600080fd5b50600436106101f05760003560e01c806391d148541161010f578063c87b56dd116100a2578063e77365f711610071578063e77365f714610468578063e985e9c514610496578063eeedfde3146104a9578063f72a371e146104c957600080fd5b8063c87b56dd14610406578063d539139314610419578063d547741f14610440578063e7705db61461045357600080fd5b8063a22cb465116100de578063a22cb465146103ba578063a3f90cc0146103cd578063b88d4fde146103e0578063bcbcc880146103f357600080fd5b806391d148541461038457806395d89b4114610397578063973560101461039f578063a217fddf146103b257600080fd5b806336568abe1161018757806369cc2a141161015657806369cc2a141461031957806370a08231146103395780637443e9681461034c5780637a5080221461035f57600080fd5b806336568abe146102cd57806342842e0e146102e05780635baa43ae146102f35780636352211e1461030657600080fd5b806318160ddd116101c357806318160ddd1461027257806323b872dd14610284578063248a9ca3146102975780632f2ff15d146102ba57600080fd5b806301ffc9a7146101f557806306fdde031461021d578063081812fc14610232578063095ea7b31461025d575b600080fd5b610208610203366004611c15565b6104dc565b60405190151581526020015b60405180910390f35b6102256104ed565b6040516102149190611c82565b610245610240366004611c95565b61057f565b6040516001600160a01b039091168152602001610214565b61027061026b366004611cca565b6105a8565b005b6008545b604051908152602001610214565b610270610292366004611cf4565b6105b7565b6102766102a5366004611c95565b60009081526007602052604090206001015490565b6102706102c8366004611d30565b610647565b6102706102db366004611d30565b61066c565b6102706102ee366004611cf4565b6106a4565b610270610301366004611c95565b6106bf565b610245610314366004611c95565b610776565b61032c610327366004611c95565b610781565b6040516102149190611d94565b610276610347366004611dfd565b610908565b61027661035a366004611ec4565b610950565b61037261036d366004611c95565b610b68565b60405161021496959493929190611f38565b610208610392366004611d30565b610c35565b610225610c60565b6102706103ad366004611c95565b610c6f565b610276600081565b6102706103c8366004611f81565b610d96565b6102706103db366004611c95565b610da1565b6102706103ee366004611fbd565b610e29565b610270610401366004612039565b610e40565b610225610414366004611c95565b610f97565b6102767f9f2df0fed2c77648de5860a4cc508cd0818c85b8b8a1ab4ceeef8d981c8956a681565b61027061044e366004611d30565b6110a8565b61027660008051602061233483398151915281565b61020861047636600461205b565b8051602081830181018051600a8252928201919093012091525460ff1681565b6102086104a4366004612090565b6110cd565b6102766104b7366004611c95565b600b6020526000908152604090205481565b6102706104d7366004612039565b6110fb565b60006104e78261126f565b92915050565b6060600080546104fc906120ba565b80601f0160208091040260200160405190810160405280929190818152602001828054610528906120ba565b80156105755780601f1061054a57610100808354040283529160200191610575565b820191906000526020600020905b81548152906001019060200180831161055857829003601f168201915b5050505050905090565b600061058a82611294565b506000828152600460205260409020546001600160a01b03166104e7565b6105b38282336112cc565b5050565b6001600160a01b0382166105e657604051633250574960e11b8152600060048201526024015b60405180910390fd5b60006105f38383336112d9565b9050836001600160a01b0316816001600160a01b031614610641576040516364283d7b60e01b81526001600160a01b03808616600483015260248201849052821660448201526064016105dd565b50505050565b600082815260076020526040902060010154610662816113cd565b61064183836113da565b6001600160a01b03811633146106955760405163334bd91960e11b815260040160405180910390fd5b61069f828261146e565b505050565b61069f83838360405180602001604052806000815250610e29565b6000805160206123348339815191526106d7816113cd565b60006106e2836114db565b6001600160a01b0316036107085760405162461bcd60e51b81526004016105dd906120f4565b600082815260096020526040808220805460ff1916600217905551339184917f3fc2468140bc5a8a81068e3cdc2a559a2babb5321b3924dd97676f08c0d045489190a381600080516020612314833981519152600260405161076a919061212b565b60405180910390a25050565b60006104e782611294565b6107c46040805160c0810190915280600081526020016000815260200160006001600160a01b031681526020016060815260200160008152602001600081525090565b60006107cf836114db565b6001600160a01b0316036107f55760405162461bcd60e51b81526004016105dd906120f4565b60008281526009602052604090819020815160c081019092528054829060ff16600581111561082657610826611d5c565b600581111561083757610837611d5c565b81526001820154602082015260028201546001600160a01b0316604082015260038201805460609092019161086b906120ba565b80601f0160208091040260200160405190810160405280929190818152602001828054610897906120ba565b80156108e45780601f106108b9576101008083540402835291602001916108e4565b820191906000526020600020905b8154815290600101906020018083116108c757829003601f168201915b50505050508152602001600482015481526020016005820154815250509050919050565b60006001600160a01b038216610934576040516322718ad960e21b8152600060048201526024016105dd565b506001600160a01b031660009081526003602052604090205490565b60007f9f2df0fed2c77648de5860a4cc508cd0818c85b8b8a1ab4ceeef8d981c8956a661097c816113cd565b600a8460405161098c9190612139565b9081526040519081900360200190205460ff16156109fb5760405162461bcd60e51b815260206004820152602660248201527f45636f436861696e3a2049504653206861736820616c726561647920726567696044820152651cdd195c995960d21b60648201526084016105dd565b60088054906000610a0b83612155565b9091555050600854610a1d86826114f6565b610a278185611510565b6040805160c081018252600080825260208083018290526001600160a01b038a16838501526060830189905242608084015260a08301829052848252600990529190912081518154829060ff19166001836005811115610a8957610a89611d5c565b02179055506020820151600182015560408201516002820180546001600160a01b0319166001600160a01b0390921691909117905560608201516003820190610ad290826121ca565b506080820151816004015560a082015181600501559050506001600a86604051610afc9190612139565b908152604051908190036020018120805492151560ff19909316929092179091556001600160a01b0387169082907fb8fb4180d8e1b3f288672c993838c3c2733599c0efe83db80aed4705cb9708e990610b57908990611c82565b60405180910390a395945050505050565b600960205260009081526040902080546001820154600283015460038401805460ff9094169492936001600160a01b039092169291610ba6906120ba565b80601f0160208091040260200160405190810160405280929190818152602001828054610bd2906120ba565b8015610c1f5780601f10610bf457610100808354040283529160200191610c1f565b820191906000526020600020905b815481529060010190602001808311610c0257829003601f168201915b5050505050908060040154908060050154905086565b60009182526007602090815260408084206001600160a01b0393909316845291905290205460ff1690565b6060600180546104fc906120ba565b600080516020612334833981519152610c87816113cd565b6000610c92836114db565b6001600160a01b031603610cb85760405162461bcd60e51b81526004016105dd906120f4565b600260008381526009602052604090205460ff166005811115610cdd57610cdd611d5c565b14610d345760405162461bcd60e51b815260206004820152602160248201527f45636f436861696e3a206d75737420626520696e204355545f5245504f5254456044820152601160fa1b60648201526084016105dd565b600082815260096020526040808220805460ff1916600317905551339184917fa0788204d9003f75ba15d6d0b96dfa3f2eb5b2b2452f777b85b551651522f1ba9190a381600080516020612314833981519152600360405161076a919061212b565b6105b3338383611560565b600080516020612334833981519152610db9816113cd565b6000610dc4836114db565b6001600160a01b031603610dea5760405162461bcd60e51b81526004016105dd906120f4565b600082815260096020526040902080546005919060ff1916600183021790555081600080516020612314833981519152600560405161076a919061212b565b610e348484846105b7565b610641848484846115ff565b600080516020612334833981519152610e58816113cd565b6000610e63846114db565b6001600160a01b031603610e895760405162461bcd60e51b81526004016105dd906120f4565b60008381526009602052604081205460ff166005811115610eac57610eac611d5c565b14610f0c5760405162461bcd60e51b815260206004820152602a60248201527f45636f436861696e3a2074726565206d75737420626520696e205245474953546044820152694552454420737461746560b01b60648201526084016105dd565b600083815260096020908152604091829020805460ff1916600190811782558101859055426005909101559051838152339185917ff1b338545b993ff069ea8a7bc2615f9de55821422c176ddbba097f993c95a1cd910160405180910390a3826000805160206123148339815191526001604051610f8a919061212b565b60405180910390a2505050565b6060610fa282611294565b5060008281526006602052604081208054610fbc906120ba565b80601f0160208091040260200160405190810160405280929190818152602001828054610fe8906120ba565b80156110355780601f1061100a57610100808354040283529160200191611035565b820191906000526020600020905b81548152906001019060200180831161101857829003601f168201915b50505050509050600061105360408051602081019091526000815290565b90508051600003611065575092915050565b81511561109757808260405160200161107f92919061228a565b60405160208183030381529060405292505050919050565b6110a084611728565b949350505050565b6000828152600760205260409020600101546110c3816113cd565b610641838361146e565b6001600160a01b03918216600090815260056020908152604080832093909416825291909152205460ff1690565b600080516020612334833981519152611113816113cd565b600061111e846114db565b6001600160a01b03160361117f5760405162461bcd60e51b815260206004820152602260248201527f45636f436861696e3a206e657720746f6b656e20646f6573206e6f74206578696044820152611cdd60f21b60648201526084016105dd565b600160008481526009602052604090205460ff1660058111156111a4576111a4611d5c565b146112005760405162461bcd60e51b815260206004820152602660248201527f45636f436861696e3a207265706c6163656d656e74206d75737420626520564560448201526514925192515160d21b60648201526084016105dd565b6000838152600960209081526040808320805460ff19166004179055600b90915280822084905551839185917fe6b9c8fb4941b092811c72ba8ce6b0a8798e73acfe4d4b36f78a807ee62900499190a3826000805160206123148339815191526004604051610f8a919061212b565b60006001600160e01b03198216637965db0b60e01b14806104e757506104e78261179d565b6000806112a0836114db565b90506001600160a01b0381166104e757604051637e27328960e01b8152600481018490526024016105dd565b61069f83838360016117c2565b6000806112e5846114db565b90506001600160a01b03831615611301576113018184866118c8565b6001600160a01b0381161561133f5761131e6000856000806117c2565b6001600160a01b038116600090815260036020526040902080546000190190555b6001600160a01b0385161561136e576001600160a01b0385166000908152600360205260409020805460010190555b60008481526002602052604080822080546001600160a01b0319166001600160a01b0389811691821790925591518793918516917fddf252ad1be2c89b69c2b068fc378daa952ba7f163c4a11628f55a4df523b3ef91a4949350505050565b6113d7813361192c565b50565b60006113e68383610c35565b6114665760008381526007602090815260408083206001600160a01b03861684529091529020805460ff1916600117905561141e3390565b6001600160a01b0316826001600160a01b0316847f2f8788117e7eff1d82e926ec794901d17c78024a50270940304540a733656f0d60405160405180910390a45060016104e7565b5060006104e7565b600061147a8383610c35565b156114665760008381526007602090815260408083206001600160a01b0386168085529252808320805460ff1916905551339286917ff6391f5c32d9c69d2a47ea670b442974b53935d1edc7fd64eb21e047a839171b9190a45060016104e7565b6000908152600260205260409020546001600160a01b031690565b6105b3828260405180602001604052806000815250611965565b600082815260066020526040902061152882826121ca565b506040518281527ff8e1a15aba9398e019f0b49df1a4fde98ee17ae345cb5f6b5e2c27f5033e8ce79060200160405180910390a15050565b6001600160a01b03821661159257604051630b61174360e31b81526001600160a01b03831660048201526024016105dd565b6001600160a01b03838116600081815260056020908152604080832094871680845294825291829020805460ff191686151590811790915591519182527f17307eab39ab6107e8899845ad3d59bd9653f200f220920489ca2b5937696c31910160405180910390a3505050565b6001600160a01b0383163b1561064157604051630a85bd0160e11b81526001600160a01b0384169063150b7a02906116419033908890879087906004016122b9565b6020604051808303816000875af192505050801561167c575060408051601f3d908101601f19168201909252611679918101906122f6565b60015b6116e5573d8080156116aa576040519150601f19603f3d011682016040523d82523d6000602084013e6116af565b606091505b5080516000036116dd57604051633250574960e11b81526001600160a01b03851660048201526024016105dd565b805181602001fd5b6001600160e01b03198116630a85bd0160e11b1461172157604051633250574960e11b81526001600160a01b03851660048201526024016105dd565b5050505050565b606061173382611294565b50600061174b60408051602081019091526000815290565b9050600081511161176b5760405180602001604052806000815250611796565b806117758461197c565b60405160200161178692919061228a565b6040516020818303038152906040525b9392505050565b60006001600160e01b03198216632483248360e11b14806104e757506104e782611a0f565b80806117d657506001600160a01b03821615155b156118985760006117e684611294565b90506001600160a01b038316158015906118125750826001600160a01b0316816001600160a01b031614155b8015611825575061182381846110cd565b155b1561184e5760405163a9fbf51f60e01b81526001600160a01b03841660048201526024016105dd565b81156118965783856001600160a01b0316826001600160a01b03167f8c5be1e5ebec7d5bd14f71427d1e84f3dd0314c0f7b2291e5b200ac8c7c3b92560405160405180910390a45b505b5050600090815260046020526040902080546001600160a01b0319166001600160a01b0392909216919091179055565b6118d3838383611a5f565b61069f576001600160a01b03831661190157604051637e27328960e01b8152600481018290526024016105dd565b60405163177e802f60e01b81526001600160a01b0383166004820152602481018290526044016105dd565b6119368282610c35565b6105b35760405163e2517d3f60e01b81526001600160a01b0382166004820152602481018390526044016105dd565b61196f8383611ac2565b61069f60008484846115ff565b6060600061198983611b27565b600101905060008167ffffffffffffffff8111156119a9576119a9611e18565b6040519080825280601f01601f1916602001820160405280156119d3576020820181803683370190505b5090508181016020015b600019016f181899199a1a9b1b9c1cb0b131b232b360811b600a86061a8153600a85049450846119dd57509392505050565b60006001600160e01b031982166380ac58cd60e01b1480611a4057506001600160e01b03198216635b5e139f60e01b145b806104e757506301ffc9a760e01b6001600160e01b03198316146104e7565b60006001600160a01b038316158015906110a05750826001600160a01b0316846001600160a01b03161480611a995750611a9984846110cd565b806110a05750506000908152600460205260409020546001600160a01b03908116911614919050565b6001600160a01b038216611aec57604051633250574960e11b8152600060048201526024016105dd565b6000611afa838360006112d9565b90506001600160a01b0381161561069f576040516339e3563760e11b8152600060048201526024016105dd565b60008072184f03e93ff9f4daa797ed6e38ed64bf6a1f0160401b8310611b665772184f03e93ff9f4daa797ed6e38ed64bf6a1f0160401b830492506040015b6d04ee2d6d415b85acef81000000008310611b92576d04ee2d6d415b85acef8100000000830492506020015b662386f26fc100008310611bb057662386f26fc10000830492506010015b6305f5e1008310611bc8576305f5e100830492506008015b6127108310611bdc57612710830492506004015b60648310611bee576064830492506002015b600a83106104e75760010192915050565b6001600160e01b0319811681146113d757600080fd5b600060208284031215611c2757600080fd5b813561179681611bff565b60005b83811015611c4d578181015183820152602001611c35565b50506000910152565b60008151808452611c6e816020860160208601611c32565b601f01601f19169290920160200192915050565b6020815260006117966020830184611c56565b600060208284031215611ca757600080fd5b5035919050565b80356001600160a01b0381168114611cc557600080fd5b919050565b60008060408385031215611cdd57600080fd5b611ce683611cae565b946020939093013593505050565b600080600060608486031215611d0957600080fd5b611d1284611cae565b9250611d2060208501611cae565b9150604084013590509250925092565b60008060408385031215611d4357600080fd5b82359150611d5360208401611cae565b90509250929050565b634e487b7160e01b600052602160045260246000fd5b60068110611d9057634e487b7160e01b600052602160045260246000fd5b9052565b60208152611da6602082018351611d72565b6020820151604082015260018060a01b0360408301511660608201526000606083015160c06080840152611ddd60e0840182611c56565b9050608084015160a084015260a084015160c08401528091505092915050565b600060208284031215611e0f57600080fd5b61179682611cae565b634e487b7160e01b600052604160045260246000fd5b600067ffffffffffffffff80841115611e4957611e49611e18565b604051601f8501601f19908116603f01168101908282118183101715611e7157611e71611e18565b81604052809350858152868686011115611e8a57600080fd5b858560208301376000602087830101525050509392505050565b600082601f830112611eb557600080fd5b61179683833560208501611e2e565b600080600060608486031215611ed957600080fd5b611ee284611cae565b9250602084013567ffffffffffffffff80821115611eff57600080fd5b611f0b87838801611ea4565b93506040860135915080821115611f2157600080fd5b50611f2e86828701611ea4565b9150509250925092565b611f428188611d72565b85602082015260018060a01b038516604082015260c060608201526000611f6c60c0830186611c56565b60808301949094525060a00152949350505050565b60008060408385031215611f9457600080fd5b611f9d83611cae565b915060208301358015158114611fb257600080fd5b809150509250929050565b60008060008060808587031215611fd357600080fd5b611fdc85611cae565b9350611fea60208601611cae565b925060408501359150606085013567ffffffffffffffff81111561200d57600080fd5b8501601f8101871361201e57600080fd5b61202d87823560208401611e2e565b91505092959194509250565b6000806040838503121561204c57600080fd5b50508035926020909101359150565b60006020828403121561206d57600080fd5b813567ffffffffffffffff81111561208457600080fd5b6110a084828501611ea4565b600080604083850312156120a357600080fd5b6120ac83611cae565b9150611d5360208401611cae565b600181811c908216806120ce57607f821691505b6020821081036120ee57634e487b7160e01b600052602260045260246000fd5b50919050565b6020808252601e908201527f45636f436861696e3a20746f6b656e20646f6573206e6f742065786973740000604082015260600190565b602081016104e78284611d72565b6000825161214b818460208701611c32565b9190910192915050565b60006001820161217557634e487b7160e01b600052601160045260246000fd5b5060010190565b601f82111561069f57600081815260208120601f850160051c810160208610156121a35750805b601f850160051c820191505b818110156121c2578281556001016121af565b505050505050565b815167ffffffffffffffff8111156121e4576121e4611e18565b6121f8816121f284546120ba565b8461217c565b602080601f83116001811461222d57600084156122155750858301515b600019600386901b1c1916600185901b1785556121c2565b600085815260208120601f198616915b8281101561225c5788860151825594840194600190910190840161223d565b508582101561227a5787850151600019600388901b60f8161c191681555b5050505050600190811b01905550565b6000835161229c818460208801611c32565b8351908301906122b0818360208801611c32565b01949350505050565b6001600160a01b03858116825284166020820152604081018390526080606082018190526000906122ec90830184611c56565b9695505050505050565b60006020828403121561230857600080fd5b815161179681611bff56fe5b70a4578741cddf3d4759a270c99e59f0e9e3ae3f8f77ea39e7b300841c79fc0ce23c3e399818cfee81a7ab0880f714e53d7672b08df0fa62f2843416e1ea09a2646970667358221220f6e762c1056679a699161f8834eb9d42418a2cb025cfa41df9e1236a0af83a0b64736f6c63430008140033",
  "linkReferences": {},
  "deployedLinkReferences": {}
}