{
  "_format": "hh-sol-artifact-1",
  "contractName": "ReplantationRegistry",
  "sourceName": "contracts/ReplantationRegistry.sol",
  "abi": [
    {
      "inputs": [],
      "stateMutability": "nonpayable",
      "type": "constructor"
    },
    {
      "inputs": [],
      "name": "AccessControlBadConfirmation",
      "type": "error"
    },
    {
      "inputs": [
        {
          "internalType": "address",
          "name": "account",
          "type": "address"
        },
        {
          "internalType": "bytes32",
          "name": "neededRole",
          "type": "bytes32"
        }
      ],
      "name": "AccessControlUnauthorizedAccount",
      "type": "error"
    },
    {
      "anonymous": false,
      "inputs": [
        {
          "indexed": true,
          "internalType": "uint256",
          "name": "debtId",
          "type": "uint256"
        },
        {
          "indexed": false,
          "internalType": "address",
          "name": "debtor",
          "type": "address"
        },
        {
          "indexed": false,
          "internalType": "string",
          "name": "certificateURI",
          "type": "string"
        }
      ],
      "name": "DebtCleared",
      "type": "event"
    },
    {
      "anonymous": false,
      "inputs": [
        {
          "indexed": true,
          "internalType": "uint256",
          "name": "debtId",
          "type": "uint256"
        },
        {
          "indexed": true,
          "internalType": "uint256",
          "name": "originalTokenId",
          "type": "uint256"
        },
        {
          "indexed": false,
          "internalType": "address",
          "name": "debtor",
          "type": "address"
        },
        {
          "indexed": false,
          "internalType": "uint16",
          "name": "replacementsNeeded",
          "type": "uint16"
        }
      ],
      "name": "DebtCreated",
      "type": "event"
    },
    {
      "anonymous": false,
      "inputs": [
        {
          "indexed": true,
          "internalType": "uint256",
          "name": "debtId",
          "type": "uint256"
        },
        {
          "indexed": true,
          "internalType": "uint256",
          "name": "replacementTokenId",
          "type": "uint256"
        },
        {
          "indexed": false,
          "internalType": "uint16",
          "name": "fulfilled",
          "type": "uint16"
        }
      ],
      "name": "ReplacementLinked",
      "type": "event"
    },
    {
      "anonymous": false,
      "inputs": [
        {
          "indexed": true,
          "internalType": "bytes32",
          "name": "role",
          "type": "bytes32"
        },
        {
          "indexed": true,
          "internalType": "bytes32",
          "name": "previousAdminRole",
          "type": "bytes32"
        },
        {
          "indexed": true,
          "internalType": "bytes32",
          "name": "newAdminRole",
          "type": "bytes32"
        }
      ],
      "name": "RoleAdminChanged",
      "type": "event"
    },
    {
      "anonymous": false,
      "inputs": [
        {
          "indexed": true,
          "internalType": "bytes32",
          "name": "role",
          "type": "bytes32"
        },
        {
          "indexed": true,
          "internalType": "address",
          "name": "account",
          "type": "address"
        },
        {
          "indexed": true,
          "internalType": "address",
          "name": "sender",
          "type": "address"
        }
      ],
      "name": "RoleGranted",
      "type": "event"
    },
    {
      "anonymous": false,
      "inputs": [
        {
          "indexed": true,
          "internalType": "bytes32",
          "name": "role",
          "type": "bytes32"
        },
        {
          "indexed": true,
          "internalType": "address",
          "name": "account",
          "type": "address"
        },
        {
          "indexed": true,
          "internalType": "address",
          "name": "sender",
          "type": "address"
        }
      ],
      "name": "RoleRevoked",
      "type": "event"
    },
    {
      "inputs": [],
      "name": "DEFAULT_ADMIN_ROLE",
      "outputs": [
        {
          "internalType": "bytes32",
          "name": "",
          "type": "bytes32"
        }
      ],
      "stateMutability": "view",
      "type": "function"
    },
    {
      "inputs": [],
      "name": "RECORDER_ROLE",
      "outputs": [
        {
          "internalType": "bytes32",
          "name": "",
          "type": "bytes32"
        }
      ],
      "stateMutability": "view",
      "type": "function"
    },
    {
      "inputs": [
        {
          "internalType": "uint256",
          "name": "debtId",
          "type": "uint256"
        },
        {
          "internalType": "string",
          "name": "certificateURI",
          "type": "string"
        }
      ],
      "name": "clearDebt",
      "outputs": [],
      "stateMutability": "nonpayable",
      "type": "function"
    },
    {
      "inputs": [
        {
          "internalType": "uint256",
          "name": "originalTokenId",
          "type": "uint256"
        },
        {
          "internalType": "address",
          "name": "debtor",
          "type": "address"
        },
        {
          "internalType": "uint16",
          "name": "replacementsNeeded",
          "type": "uint16"
        }
      ],
      "name": "createDebt",
      "outputs": [
        {
          "internalType": "uint256",
          "name": "",
          "type": "uint256"
        }
      ],
      "stateMutability": "nonpayable",
      "type": "function"
    },
    {
      "inputs": [
        {
          "internalType": "uint256",
          "name": "",
          "type": "uint256"
        },
        {
          "internalType": "uint256",
          "name": "",
          "type": "uint256"
        }
      ],
      "name": "debtReplacements",
      "outputs": [
        {
          "internalType": "uint256",
          "name": "debtId",
          "type": "uint256"
        },
        {
          "internalType": "uint256",
          "name": "replacementTokenId",
          "type": "uint256"
        },
        {
          "internalType": "uint256",
          "name": "linkedAt",
          "type": "uint256"
        }
      ],
      "stateMutability": "view",
      "type": "function"
    },
    {
      "inputs": [
        {
          "internalType": "uint256",
          "name": "",
          "type": "uint256"
        }
      ],
      "name": "debts",
      "outputs": [
        {
          "internalType": "uint256",
          "name": "originalTokenId",
          "type": "uint256"
        },
        {
          "internalType": "address",
          "name": "debtor",
          "type": "address"
        },
        {
          "internalType": "uint16",
          "name": "replacementsNeeded",
          "type": "uint16"
        },
        {
          "internalType": "uint16",
          "name": "replacementsFulfilled",
          "type": "uint16"
        },
        {
          "internalType": "bool",
          "name": "cleared",
          "type": "bool"
        },
        {
          "internalType": "uint256",
          "name": "createdAt",
          "type": "uint256"
        },
        {
          "internalType": "uint256",
          "name": "clearedAt",
          "type": "uint256"
        },
        {
          "internalType": "string",
          "name": "certificateURI",
          "type": "string"
        }
      ],
      "stateMutability": "view",
      "type": "function"
    },
    {
      "inputs": [
        {
          "internalType": "uint256",
          "name": "debtId",
          "type": "uint256"
        }
      ],
      "name": "getReplacements",
      "outputs": [
        {
          "components": [
            {
              "internalType": "uint256",
              "name": "debtId",
              "type": "uint256"
            },
            {
              "internalType": "uint256",
              "name": "replacementTokenId",
              "type": "uint256"
            },
            {
              "internalType": "uint256",
              "name": "linkedAt",
              "type": "uint256"
            }
          ],
          "internalType": "struct ReplantationRegistry.ReplacementLink[]",
          "name": "",
          "type": "tuple[]"
        }
      ],
      "stateMutability": "view",
      "type": "function"
    },
    {
      "inputs": [
        {
          "internalType": "bytes32",
          "name": "role",
          "type": "bytes32"
        }
      ],
      "name": "getRoleAdmin",
      "outputs": [
        {
          "internalType": "bytes32",
          "name": "",
          "type": "bytes32"
        }
      ],
      "stateMutability": "view",
      "type": "function"
    },
    {
      "inputs": [
        {
          "internalType": "address",
          "name": "user",
          "type": "address"
        }
      ],
      "name": "getUserDebts",
      "outputs": [
        {
          "internalType": "uint256[]",
          "name": "",
          "type": "uint256[]"
        }
      ],
      "stateMutability": "view",
      "type": "function"
    },
    {
      "inputs": [
        {
          "internalType": "bytes32",
          "name": "role",
          "type": "bytes32"
        },
        {
          "internalType": "address",
          "name": "account",
          "type": "address"
        }
      ],
      "name": "grantRole",
      "outputs": [],
      "stateMutability": "nonpayable",
      "type": "function"
    },
    {
      "inputs": [
        {
          "internalType": "bytes32",
          "name": "role",
          "type": "bytes32"
        },
        {
          "internalType": "address",
          "name": "account",
          "type": "address"
        }
      ],
      "name": "hasRole",
      "outputs": [
        {
          "internalType": "bool",
          "name": "",
          "type": "bool"
        }
      ],
      "stateMutability": "view",
      "type": "function"
    },
    {
      "inputs": [
        {
          "internalType": "uint256",
          "name": "debtId",
          "type": "uint256"
        },
        {
          "internalType": "uint256",
          "name": "replacementTokenId",
          "type": "uint256"
        }
      ],
      "name": "linkReplacement",
      "outputs": [],
      "stateMutability": "nonpayable",
      "type": "function"
    },
    {
      "inputs": [
        {
          "internalType": "bytes32",
          "name": "role",
          "type": "bytes32"
        },
        {
          "internalType": "address",
          "name": "callerConfirmation",
          "type": "address"
        }
      ],
      "name": "renounceRole",
      "outputs": [],
      "stateMutability": "nonpayable",
      "type": "function"
    },
    {
      "inputs": [
        {
          "internalType": "bytes32",
          "name": "role",
          "type": "bytes32"
        },
        {
          "internalType": "address",
          "name": "account",
          "type": "address"
        }
      ],
      "name": "revokeRole",
      "outputs": [],
      "stateMutability": "nonpayable",
      "type": "function"
    },
    {
      "inputs": [
        {
          "internalType": "bytes4",
          "name": "interfaceId",
          "type": "bytes4"
        }
      ],
      "name": "supportsInterface",
      "outputs": [
        {
          "internalType": "bool",
          "name": "",
          "type": "bool"
        }
      ],
      "stateMutability": "view",
      "type": "function"
    },
    {
      "inputs": [
        {
          "internalType": "uint256",
          "name": "",
          "type": "uint256"
        }
      ],
      "name": "tokenToDebt",
      "outputs": [
        {
          "internalType": "uint256",
          "name": "",
          "type": "uint256"
        }
      ],
      "stateMutability": "view",
      "type": "function"
    },
    {
      "inputs": [],
      "name": "totalDebts",
      "outputs": [
        {
          "internalType": "uint256",
          "name": "",
          "type": "uint256"
        }
      ],
      "stateMutability": "view",
      "type": "function"
    },
    {
      "inputs": [
        {
          "internalType": "address",
          "name": "",
          "type": "address"
        },
        {
          "internalType": "uint256",
          "name": "",
          "type": "uint256"
        }
      ],
      "name": "userDebts",
      "outputs": [
        {
          "internalType": "uint256",
          "name": "",
          "type": "uint256"
        }
      ],
      "stateMutability": "view",
      "type": "function"
    }
  ],
  "bytecode": "0x608060405234801561001057600080fd5b5061001c60003361004d565b506100477ff996da754c790e95d5c7ca3330cfcad529487fe9d1d8edb7afc65076fdf9adb43361004d565b506100f9565b6000828152602081815260408083206001600160a01b038516845290915281205460ff166100ef576000838152602081815260408083206001600160a01b03861684529091529020805460ff191660011790556100a73390565b6001600160a01b0316826001600160a01b0316847f2f8788117e7eff1d82e926ec794901d17c78024a50270940304540a733656f0d60405160405180910390a45060016100f3565b5060005b92915050565b611315806101086000396000f3fe608060405234801561001057600080fd5b50600436106101165760003560e01c806360039579116100a257806391d148541161007157806391d148541461028e578063a217fddf146102a1578063ab491292146102a9578063bea86581146102bc578063d547741f146102d157600080fd5b8063600395791461021457806360cffd591461023457806378c8390c1461024757806385af9b3f1461026757600080fd5b80632f2ff15d116100e95780632f2ff15d1461018d5780633063e2d8146101a057806336568abe146101c0578063365e84d5146101d35780635dafd205146101e657600080fd5b806301ffc9a71461011b57806314a1c32d1461014357806315fc54fb14610155578063248a9ca31461016a575b600080fd5b61012e610129366004610da5565b6102e4565b60405190151581526020015b60405180910390f35b6001545b60405190815260200161013a565b610168610163366004610dd6565b61031b565b005b610147610178366004610df8565b60009081526020819052604090206001015490565b61016861019b366004610e2d565b6105c7565b6101b36101ae366004610df8565b6105ec565b60405161013a9190610e59565b6101686101ce366004610e2d565b61067c565b6101476101e1366004610eb2565b6106b4565b6101f96101f4366004610dd6565b6106e5565b6040805193845260208401929092529082015260600161013a565b610147610222366004610df8565b60056020526000908152604090205481565b610147610242366004610edc565b610727565b61025a610255366004610f23565b61097c565b60405161013a9190610f3e565b61027a610275366004610df8565b6109e8565b60405161013a989796959493929190610fc8565b61012e61029c366004610e2d565b610ad0565b610147600081565b6101686102b7366004611040565b610af9565b6101476000805160206112c083398151915281565b6101686102df366004610e2d565b610c39565b60006001600160e01b03198216637965db0b60e01b148061031557506301ffc9a760e01b6001600160e01b03198316145b92915050565b6000805160206112c083398151915261033381610c5e565b6000838152600260208190526040909120908101546103995760405162461bcd60e51b815260206004820152601d60248201527f52656769737472793a206465627420646f6573206e6f7420657869737400000060448201526064015b60405180910390fd5b6001810154600160c01b900460ff16156103f55760405162461bcd60e51b815260206004820152601e60248201527f52656769737472793a206465627420616c726561647920636c656172656400006044820152606401610390565b600083815260056020526040902054156104515760405162461bcd60e51b815260206004820152601e60248201527f52656769737472793a20746f6b656e20616c7265616479206c696e6b656400006044820152606401610390565b600084815260036020818152604080842081516060810183528981528084018981524293820193845282546001808201855593885294909620905193909402909301918255925181830155915160029092019190915581018054600160b01b900461ffff169060166104c283611111565b82546101009290920a61ffff81810219909316918316021790915560008581526005602090815260409182902088905560018501549151600160b01b909204909216815285925086917f6a0e24a24a31c61719aa4f4789b5bd00a247cf0949be25c900fdb2d2a7444a8f910160405180910390a3600181015461ffff600160a01b82048116600160b01b90920416106105c157600181018054600160c01b60ff60c01b19821617909155426003830155604080516001600160a01b0390921682526020820181905260009082015284907f0289781528a095a043a54cc17167fb71cec07cf9b7b04637cfd1aa3ca3c978f8906060015b60405180910390a25b50505050565b6000828152602081905260409020600101546105e281610c5e565b6105c18383610c6b565b606060036000838152602001908152602001600020805480602002602001604051908101604052809291908181526020016000905b828210156106715783829060005260206000209060030201604051806060016040529081600082015481526020016001820154815260200160028201548152505081526020019060010190610621565b505050509050919050565b6001600160a01b03811633146106a55760405163334bd91960e11b815260040160405180910390fd5b6106af8282610cfd565b505050565b600460205281600052604060002081815481106106d057600080fd5b90600052602060002001600091509150505481565b6003602052816000526040600020818154811061070157600080fd5b600091825260209091206003909102018054600182015460029092015490935090915083565b60006000805160206112c083398151915261074181610c5e565b60008361ffff16116107a75760405162461bcd60e51b815260206004820152602960248201527f52656769737472793a206174206c656173742031207265706c6163656d656e74604482015268081c995c5d5a5c995960ba1b6064820152608401610390565b6001600160a01b0384166107fd5760405162461bcd60e51b815260206004820152601860248201527f52656769737472793a20696e76616c696420646562746f7200000000000000006044820152606401610390565b6001805490600061080d83611132565b90915550506001805460408051610100810182528881526001600160a01b03808916602080840191825261ffff808b16858701908152600060608701818152608088018281524260a08a0190815260c08a018481528b518089018d5285815260e08c019081528d86526002988990529b9094208a51815597519c880180549551935192511515600160c01b0260ff60c01b19938816600160b01b029390931662ffffff60b01b1994909716600160a01b026001600160b01b03199096169d9099169c909c1793909317169290921717909355955195810195909555516003850155905191929091600482019061090390826111d3565b5050506001600160a01b0385166000818152600460209081526040808320805460018101825590845292829020909201849055815192835261ffff871690830152879183917f7c73eaa9e97c7a9643366cbdfab8569fc0e80a520a9c73704fbaba2a077c9f95910160405180910390a395945050505050565b6001600160a01b0381166000908152600460209081526040918290208054835181840281018401909452808452606093928301828280156109dc57602002820191906000526020600020905b8154815260200190600101908083116109c8575b50505050509050919050565b60026020819052600091825260409091208054600182015492820154600383015460048401805493956001600160a01b03811695600160a01b820461ffff90811696600160b01b840490911695600160c01b90930460ff1694929390610a4d9061114b565b80601f0160208091040260200160405190810160405280929190818152602001828054610a799061114b565b8015610ac65780601f10610a9b57610100808354040283529160200191610ac6565b820191906000526020600020905b815481529060010190602001808311610aa957829003601f168201915b5050505050905088565b6000918252602082815260408084206001600160a01b0393909316845291905290205460ff1690565b6000805160206112c0833981519152610b1181610c5e565b600083815260026020819052604090912090810154610b725760405162461bcd60e51b815260206004820152601d60248201527f52656769737472793a206465627420646f6573206e6f742065786973740000006044820152606401610390565b6001810154600160c01b900460ff1615610bce5760405162461bcd60e51b815260206004820152601960248201527f52656769737472793a20616c726561647920636c6561726564000000000000006044820152606401610390565b60018101805460ff60c01b1916600160c01b17905542600382015560048101610bf784826111d3565b50600181015460405185917f0289781528a095a043a54cc17167fb71cec07cf9b7b04637cfd1aa3ca3c978f8916105b8916001600160a01b0316908790611293565b600082815260208190526040902060010154610c5481610c5e565b6105c18383610cfd565b610c688133610d68565b50565b6000610c778383610ad0565b610cf5576000838152602081815260408083206001600160a01b03861684529091529020805460ff19166001179055610cad3390565b6001600160a01b0316826001600160a01b0316847f2f8788117e7eff1d82e926ec794901d17c78024a50270940304540a733656f0d60405160405180910390a4506001610315565b506000610315565b6000610d098383610ad0565b15610cf5576000838152602081815260408083206001600160a01b0386168085529252808320805460ff1916905551339286917ff6391f5c32d9c69d2a47ea670b442974b53935d1edc7fd64eb21e047a839171b9190a4506001610315565b610d728282610ad0565b610da15760405163e2517d3f60e01b81526001600160a01b038216600482015260248101839052604401610390565b5050565b600060208284031215610db757600080fd5b81356001600160e01b031981168114610dcf57600080fd5b9392505050565b60008060408385031215610de957600080fd5b50508035926020909101359150565b600060208284031215610e0a57600080fd5b5035919050565b80356001600160a01b0381168114610e2857600080fd5b919050565b60008060408385031215610e4057600080fd5b82359150610e5060208401610e11565b90509250929050565b602080825282518282018190526000919060409081850190868401855b82811015610ea55781518051855286810151878601528501518585015260609093019290850190600101610e76565b5091979650505050505050565b60008060408385031215610ec557600080fd5b610ece83610e11565b946020939093013593505050565b600080600060608486031215610ef157600080fd5b83359250610f0160208501610e11565b9150604084013561ffff81168114610f1857600080fd5b809150509250925092565b600060208284031215610f3557600080fd5b610dcf82610e11565b6020808252825182820181905260009190848201906040850190845b81811015610f7657835183529284019291840191600101610f5a565b50909695505050505050565b6000815180845260005b81811015610fa857602081850181015186830182015201610f8c565b506000602082860101526020601f19601f83011685010191505092915050565b8881526001600160a01b038816602082015261ffff878116604083015286166060820152841515608082015260a0810184905260c0810183905261010060e0820181905260009061101b83820185610f82565b9b9a5050505050505050505050565b634e487b7160e01b600052604160045260246000fd5b6000806040838503121561105357600080fd5b82359150602083013567ffffffffffffffff8082111561107257600080fd5b818501915085601f83011261108657600080fd5b8135818111156110985761109861102a565b604051601f8201601f19908116603f011681019083821181831017156110c0576110c061102a565b816040528281528860208487010111156110d957600080fd5b8260208601602083013760006020848301015280955050505050509250929050565b634e487b7160e01b600052601160045260246000fd5b600061ffff808316818103611128576111286110fb565b6001019392505050565b600060018201611144576111446110fb565b5060010190565b600181811c9082168061115f57607f821691505b60208210810361117f57634e487b7160e01b600052602260045260246000fd5b50919050565b601f8211156106af57600081815260208120601f850160051c810160208610156111ac5750805b601f850160051c820191505b818110156111cb578281556001016111b8565b505050505050565b815167ffffffffffffffff8111156111ed576111ed61102a565b611201816111fb845461114b565b84611185565b602080601f831160018114611236576000841561121e5750858301515b600019600386901b1c1916600185901b1785556111cb565b600085815260208120601f198616915b8281101561126557888601518255948401946001909101908401611246565b50858210156112835787850151600019600388901b60f8161c191681555b5050505050600190811b01905550565b6001600160a01b03831681526040602082018190526000906112b790830184610f82565b94935050505056fef996da754c790e95d5c7ca3330cfcad529487fe9d1d8edb7afc65076fdf9adb4a2646970667358221220960c21c8d875f71f8a0d710d3974271c38f654235c7a6952de4bce3f5df23b8b64736f6c63430008140033",
  "linkReferences": {},
  "deployedLinkReferences": {}
}