{
  "_format": "hh-sol-artifact-1",
  "contractName": "TreeCuttingReport",
  "sourceName": "contracts/TreeCuttingReport.sol",
  "abi": [
    {
      "inputs": [],
      "stateMutability": "nonpayable",
      "type": "constructor"
    },
    {
      "inputs": [],
      "name": "AccessControlBadConfirmation",
      "type": "error"
    },
    {
      "inputs": [
        {
          "internalType": "address",
          "name": "account",
          "type": "address"
        },
        {
          "internalType": "bytes32",
          "name": "neededRole",
          "type": "bytes32"
        }
      ],
      "name": "AccessControlUnauthorizedAccount",
      "type": "error"
    },
    {
      "anonymous": false,
      "inputs": [
        {
          "indexed": true,
          "internalType": "bytes32",
          "name": "role",
          "type": "bytes32"
        },
        {
          "indexed": true,
          "internalType": "bytes32",
          "name": "previousAdminRole",
          "type": "bytes32"
        },
        {
          "indexed": true,
          "internalType": "bytes32",
          "name": "newAdminRole",
          "type": "bytes32"
        }
      ],
      "name": "RoleAdminChanged",
      "type": "event"
    },
    {
      "anonymous": false,
      "inputs": [
        {
          "indexed": true,
          "internalType": "bytes32",
          "name": "role",
          "type": "bytes32"
        },
        {
          "indexed": true,
          "internalType": "address",
          "name": "account",
          "type": "address"
        },
        {
          "indexed": true,
          "internalType": "address",
          "name": "sender",
          "type": "address"
        }
      ],
      "name": "RoleGranted",
      "type": "event"
    },
    {
      "anonymous": false,
      "inputs": [
        {
          "indexed": true,
          "internalType": "bytes32",
          "name": "role",
          "type": "bytes32"
        },
        {
          "indexed": true,
          "internalType": "address",
          "name": "account",
          "type": "address"
        },
        {
          "indexed": true,
          "internalType": "address",
          "name": "sender",
          "type": "address"
        }
      ],
      "name": "RoleRevoked",
      "type": "event"
    },
    {
      "anonymous": false,
      "inputs": [
        {
          "indexed": true,
          "internalType": "uint256",
          "name": "tokenId",
          "type": "uint256"
        },
        {
          "indexed": false,
          "internalType": "string",
          "name": "reason",
          "type": "string"
        }
      ],
      "name": "TreeCutReported",
      "type": "event"
    },
    {
      "inputs": [],
      "name": "DEFAULT_ADMIN_ROLE",
      "outputs": [
        {
          "internalType": "bytes32",
          "name": "",
          "type": "bytes32"
        }
      ],
      "stateMutability": "view",
      "type": "function"
    },
    {
      "inputs": [],
      "name": "REPORTER_ROLE",
      "outputs": [
        {
          "internalType": "bytes32",
          "name": "",
          "type": "bytes32"
        }
      ],
      "stateMutability": "view",
      "type": "function"
    },
    {
      "inputs": [
        {
          "internalType": "bytes32",
          "name": "role",
          "type": "bytes32"
        }
      ],
      "name": "getRoleAdmin",
      "outputs": [
        {
          "internalType": "bytes32",
          "name": "",
          "type": "bytes32"
        }
      ],
      "stateMutability": "view",
      "type": "function"
    },
    {
      "inputs": [
        {
          "internalType": "bytes32",
          "name": "role",
          "type": "bytes32"
        },
        {
          "internalType": "address",
          "name": "account",
          "type": "address"
        }
      ],
      "name": "grantRole",
      "outputs": [],
      "stateMutability": "nonpayable",
      "type": "function"
    },
    {
      "inputs": [
        {
          "internalType": "bytes32",
          "name": "role",
          "type": "bytes32"
        },
        {
          "internalType": "address",
          "name": "account",
          "type": "address"
        }
      ],
      "name": "hasRole",
      "outputs": [
        {
          "internalType": "bool",
          "name": "",
          "type": "bool"
        }
      ],
      "stateMutability": "view",
      "type": "function"
    },
    {
      "inputs": [
        {
          "internalType": "bytes32",
          "name": "role",
          "type": "bytes32"
        },
        {
          "internalType": "address",
          "name": "callerConfirmation",
          "type": "address"
        }
      ],
      "name": "renounceRole",
      "outputs": [],
      "stateMutability": "nonpayable",
      "type": "function"
    },
    {
      "inputs": [
        {
          "internalType": "uint256",
          "name": "tokenId",
          "type": "uint256"
        },
        {
          "internalType": "string",
          "name": "reason",
          "type": "string"
        }
      ],
      "name": "reportCutting",
      "outputs": [],
      "stateMutability": "nonpayable",
      "type": "function"
    },
    {
      "inputs": [
        {
          "internalType": "uint256",
          "name": "",
          "type": "uint256"
        }
      ],
      "name": "reports",
      "outputs": [
        {
          "internalType": "uint256",
          "name": "tokenId",
          "type": "uint256"
        },
        {
          "internalType": "string",
          "name": "reason",
          "type": "string"
        },
        {
          "internalType": "uint256",
          "name": "timestamp",
          "type": "uint256"
        },
        {
          "internalType": "address",
          "name": "reporter",
          "type": "address"
        }
      ],
      "stateMutability": "view",
      "type": "function"
    },
    {
      "inputs": [
        {
          "internalType": "bytes32",
          "name": "role",
          "type": "bytes32"
        },
        {
          "internalType": "address",
          "name": "account",
          "type": "address"
        }
      ],
      "name": "revokeRole",
      "outputs": [],
      "stateMutability": "nonpayable",
      "type": "function"
    },
    {
      "inputs": [
        {
          "internalType": "bytes4",
          "name": "interfaceId",
          "type": "bytes4"
        }
      ],
      "name": "supportsInterface",
      "outputs": [
        {
          "internalType": "bool",
          "name": "",
          "type": "bool"
        }
      ],
      "stateMutability": "view",
      "type": "function"
    }
  ],
  "bytecode": "0x608060405234801561001057600080fd5b5061001c600033610022565b506100ce565b6000828152602081815260408083206001600160a01b038516845290915281205460ff166100c4576000838152602081815260408083206001600160a01b03861684529091529020805460ff1916600117905561007c3390565b6001600160a01b0316826001600160a01b0316847f2f8788117e7eff1d82e926ec794901d17c78024a50270940304540a733656f0d60405160405180910390a45060016100c8565b5060005b92915050565b6108e5806100dd6000396000f3fe608060405234801561001057600080fd5b506004361061009e5760003560e01c806391d148541161006657806391d148541461014b578063954718811461015e578063a217fddf14610171578063c942adf714610179578063d547741f1461019c57600080fd5b806301ffc9a7146100a3578063248a9ca3146100cb5780632f2ff15d146100fc57806336568abe146101115780633f60d79914610124575b600080fd5b6100b66100b136600461057d565b6101af565b60405190151581526020015b60405180910390f35b6100ee6100d93660046105ae565b60009081526020819052604090206001015490565b6040519081526020016100c2565b61010f61010a3660046105c7565b6101e6565b005b61010f61011f3660046105c7565b610211565b6100ee7f3204c940063673962b481a0395619b3dbbd137589c419e993978c1c71bcf68ec81565b6100b66101593660046105c7565b610249565b61010f61016c366004610619565b610272565b6100ee600081565b61018c6101873660046105ae565b610353565b6040516100c2949392919061071a565b61010f6101aa3660046105c7565b61040d565b60006001600160e01b03198216637965db0b60e01b14806101e057506301ffc9a760e01b6001600160e01b03198316145b92915050565b60008281526020819052604090206001015461020181610432565b61020b838361043f565b50505050565b6001600160a01b038116331461023a5760405163334bd91960e11b815260040160405180910390fd5b61024482826104d1565b505050565b6000918252602082815260408084206001600160a01b0393909316845291905290205460ff1690565b7f3204c940063673962b481a0395619b3dbbd137589c419e993978c1c71bcf68ec61029c81610432565b6040805160808101825284815260208082018581524283850152336060840152600087815260019283905293909320825181559251919291908201906102e290826107dc565b506040828101516002830155606090920151600390910180546001600160a01b0319166001600160a01b039092169190911790555183907f7505e64e87d564c8827f4b868b1c632cda1e925814ae7062799311a20269b8139061034690859061089c565b60405180910390a2505050565b60016020819052600091825260409091208054918101805461037490610754565b80601f01602080910402602001604051908101604052809291908181526020018280546103a090610754565b80156103ed5780601f106103c2576101008083540402835291602001916103ed565b820191906000526020600020905b8154815290600101906020018083116103d057829003601f168201915b5050505060028301546003909301549192916001600160a01b0316905084565b60008281526020819052604090206001015461042881610432565b61020b83836104d1565b61043c813361053c565b50565b600061044b8383610249565b6104c9576000838152602081815260408083206001600160a01b03861684529091529020805460ff191660011790556104813390565b6001600160a01b0316826001600160a01b0316847f2f8788117e7eff1d82e926ec794901d17c78024a50270940304540a733656f0d60405160405180910390a45060016101e0565b5060006101e0565b60006104dd8383610249565b156104c9576000838152602081815260408083206001600160a01b0386168085529252808320805460ff1916905551339286917ff6391f5c32d9c69d2a47ea670b442974b53935d1edc7fd64eb21e047a839171b9190a45060016101e0565b6105468282610249565b6105795760405163e2517d3f60e01b81526001600160a01b03821660048201526024810183905260440160405180910390fd5b5050565b60006020828403121561058f57600080fd5b81356001600160e01b0319811681146105a757600080fd5b9392505050565b6000602082840312156105c057600080fd5b5035919050565b600080604083850312156105da57600080fd5b8235915060208301356001600160a01b03811681146105f857600080fd5b809150509250929050565b634e487b7160e01b600052604160045260246000fd5b6000806040838503121561062c57600080fd5b82359150602083013567ffffffffffffffff8082111561064b57600080fd5b818501915085601f83011261065f57600080fd5b81358181111561067157610671610603565b604051601f8201601f19908116603f0116810190838211818310171561069957610699610603565b816040528281528860208487010111156106b257600080fd5b8260208601602083013760006020848301015280955050505050509250929050565b6000815180845260005b818110156106fa576020818501810151868301820152016106de565b506000602082860101526020601f19601f83011685010191505092915050565b84815260806020820152600061073360808301866106d4565b6040830194909452506001600160a01b039190911660609091015292915050565b600181811c9082168061076857607f821691505b60208210810361078857634e487b7160e01b600052602260045260246000fd5b50919050565b601f82111561024457600081815260208120601f850160051c810160208610156107b55750805b601f850160051c820191505b818110156107d4578281556001016107c1565b505050505050565b815167ffffffffffffffff8111156107f6576107f6610603565b61080a816108048454610754565b8461078e565b602080601f83116001811461083f57600084156108275750858301515b600019600386901b1c1916600185901b1785556107d4565b600085815260208120601f198616915b8281101561086e5788860151825594840194600190910190840161084f565b508582101561088c5787850151600019600388901b60f8161c191681555b5050505050600190811b01905550565b6020815260006105a760208301846106d456fea26469706673582212204c70f4b565b29a93c629eadd9120ce43687f23549c3ca9537c88c45e8f8b51b964736f6c63430008140033",
  "linkReferences": {},
  "deployedLinkReferences": {}
}